:020000040800F2
:1000000000000220753C00087118000873180008F1
:10001000751800087718000879180008000000001B
:100020000000000000000000000000007B18000835
:100030007D180008000000007F18000881180008E3
:10004000C53C0008C53C0008C53C0008C53C00088C
:10005000C53C0008C53C0008C53C0008C53C00087C
:10006000C53C0008C53C0008C53C0008C53C00086C
:10007000C53C0008C53C0008C53C0008C53C00085C
:10008000C53C0008C53C0008C53C0008C53C00084C
:10009000C53C0008C53C0008C53C0008C53C00083C
:1000A000C53C0008C53C0008C53C0008C53C00082C
:1000B000C53C0008C53C0008C53C0008C53C00081C
:1000C000C53C0008C53C0008C53C0008C53C00080C
:1000D000C53C0008C53C0008C53C0008C53C0008FC
:1000E000C53C0008C53C0008C53C0008C53C0008EC
:1000F000C53C0008C53C0008C53C0008C53C0008DC
:10010000C53C0008C53C0008C53C0008C53C0008CB
:10011000C53C0008C53C0008C53C0008C53C0008BB
:10012000C53C0008C53C0008C53C0008C53C0008AB
:10013000C53C0008C53C0008C53C0008C53C00089B
:10014000C53C0008C53C0008C53C0008C53C00088B
:10015000C53C0008C53C0008C53C0008C53C00087B
:10016000C53C0008C53C0008C53C0008C53C00086B
:10017000C53C0008C53C0008C53C00080000000064
:08018000C53C0008C53C000865
:1001880010B5054C237833B9044B13B10448AFF3C9
:1001980000800123237010BD8C080020000000009F
:1001A800103D000808B5034B1BB103490348AFF3E2
:1001B800008008BD0000000090080020103D0008E5
:1001C80081F0004102E000BF83F0004330B54FEA00
:1001D80041044FEA430594EA050F08BF90EA020F6D
:1001E8001FBF54EA000C55EA020C7FEA645C7FEA00
:1001F800655C00F0E2804FEA5454D4EB5555B8BF23
:100208006D420CDD2C4480EA020281EA030382EA93
:10021800000083EA010180EA020281EA0303362D25
:1002280088BF30BD11F0004F4FEA01314FF4801CF8
:100238004CEA113102D0404261EB410113F0004F0A
:100248004FEA03334CEA133302D0524263EB4303C1
:1002580094EA050F00F0A780A4F10104D5F1200E5F
:100268000DDB02FA0EFC22FA05F2801841F10001BA
:1002780003FA0EF2801843FA05F359410EE0A5F18E
:1002880020050EF1200E012A03FA0EFC28BF4CF0BF
:10029800020C43FA05F3C01851EBE37101F0004575
:1002A80007D54FF0000EDCF1000C7EEB00006EEB82
:1002B8000101B1F5801F1BD3B1F5001F0CD349080C
:1002C8005FEA30004FEA3C0C04F101044FEA445263
:1002D80012F5800F80F09A80BCF1004F08BF5FEAEA
:1002E800500C50F1000041EB045141EA050130BDCA
:1002F8005FEA4C0C404141EB010111F4801FA4F16D
:100308000104E9D191F0000F04BF01460020B1FAC1
:1003180081F308BF2033A3F10B03B3F120020CDAF9
:100328000C3208DD02F1140CC2F10C0201FA0CF0D7
:1003380021FA02F10CE002F11402D8BFC2F1200C3C
:1003480001FA02F120FA0CFCDCBF41EA0C019040F2
:10035800E41AA2BF01EB0451294330BD6FEA04043B
:100368001F3C1CDA0C340EDC04F11404C4F1200226
:1003780020FA04F001FA02F340EA030021FA04F338
:1003880045EA030130BDC4F10C04C4F1200220FA8F
:1003980002F001FA04F340EA0300294630BD21FACD
:1003A80004F0294630BD94F0000F83F4801306BF93
:1003B80081F480110134013D4EE77FEA645C18BF87
:1003C8007FEA655C29D094EA050F08BF90EA020F1E
:1003D80005D054EA000C04BF1946104630BD91EA16
:1003E800030F1EBF0021002030BD5FEA545C05D119
:1003F8004000494128BF41F0004130BD14F5800458
:100408003CBF01F5801130BD01F0004545F0FE41CB
:1004180041F470014FF0000030BD7FEA645C1ABF00
:10042800194610467FEA655C1CBF0B46024650EA37
:10043800013406BF52EA033591EA030F41F4002163
:1004480030BD00BF90F0000F04BF0021704730B5E9
:100458004FF4806404F132044FF000054FF00001BE
:1004680050E700BF90F0000F04BF0021704730B57F
:100478004FF4806404F1320410F0004548BF404254
:100488004FF000013EE700BF42004FEAE2014FEAA9
:1004980031014FEA02701FBF12F07F4393F07F4F84
:1004A80081F06051704732F07F4208BF704793F087
:1004B8007F4F04BF41F40021704730B54FF460749A
:1004C80001F0004521F000411CE700BF50EA01029D
:1004D80008BF704730B54FF000050AE050EA010246
:1004E80008BF704730B511F0004502D5404261EBB6
:1004F80041014FF4806404F132045FEA915C3FF4F7
:10050800D8AE4FF003025FEADC0C18BF03325FEA93
:10051800DC0C18BF033202EBDC02C2F1200300FA44
:1005280003FC20FA02F001FA03FE40EA0E0021FA69
:1005380002F11444BDE600BF70B54FF0FF0C4CF457
:10054800E06C1CEA11541DBF1CEA135594EA0C0F09
:1005580095EA0C0F00F0DEF82C4481EA030621EA44
:100568004C5123EA4C5350EA013518BF52EA03357F
:1005780041F4801143F4801338D0A0FB02CE4FF031
:100588000005E1FB02E506F00042E0FB03E54FF061
:100598000006E1FB03569CF0000F18BF4EF0010E59
:1005A800A4F1FF04B6F5007F64F5407404D25FEA55
:1005B8004E0E6D4146EB060642EAC62141EA555108
:1005C8004FEAC52040EA5E504FEACE2EB4F1FD0C4A
:1005D80088BFBCF5E06F1ED8BEF1004F08BF5FEAC8
:1005E800500E50F1000041EB045170BD06F000467A
:1005F80046EA010140EA020081EA0301B4EB5C0427
:10060800C2BFD4EB0C0541EA045170BD41F480111E
:100618004FF0000E013C00F3AB8014F1360FDEBF43
:10062800002001F0004170BDC4F10004203C35DA1F
:100638000C341BDC04F11404C4F1200500FA05F3A2
:1006480020FA04F001FA05F240EA020001F0004243
:1006580021F0004110EBD37021FA04F642EB0601B9
:100668005EEA430E08BF20EAD37070BDC4F10C04E3
:10067800C4F1200500FA04F320FA05F001FA04F2A7
:1006880040EA020001F0004110EBD37041F1000193
:100698005EEA430E08BF20EAD37070BDC4F120059E
:1006A80000FA05F24EEA020E20FA04F301FA05F206
:1006B80043EA020321FA04F001F0004121FA04F2AE
:1006C80020EA020000EBD3705EEA430E08BF20EA7E
:1006D800D37070BD94F0000F0FD101F000464000B8
:1006E80041EB010111F4801F08BF013CF7D041EA3A
:1006F800060195F0000F18BF704703F0004652003E
:1007080043EB030313F4801F08BF013DF7D043EA0E
:100718000603704794EA0C0F0CEA135518BF95EAC4
:100728000C0F0CD050EA410618BF52EA4306D1D14B
:1007380081EA030101F000414FF0000070BD50EA6A
:10074800410606BF1046194652EA430619D094EAF4
:100758000C0F02D150EA013613D195EA0C0F05D1DE
:1007680052EA03361CBF104619460AD181EA030132
:1007780001F0004141F0FE4141F470014FF00000EA
:1007880070BD41F0FE4141F4780170BD70B54FF085
:10079800FF0C4CF4E06C1CEA11541DBF1CEA135505
:1007A80094EA0C0F95EA0C0F00F0A7F8A4EB0504E7
:1007B80081EA030E52EA03354FEA013100F08880DE
:1007C8004FEA03334FF0805545EA131343EA1263A7
:1007D8004FEA022245EA111545EA10654FEA00265C
:1007E8000EF000419D4208BF964244F1FD0404F515
:1007F800407402D25B084FEA3202B61A65EB030571
:100808005B084FEA32024FF480104FF4002CB6EB2D
:10081800020E75EB030E22BFB61A754640EA0C00AD
:100828005B084FEA3202B6EB020E75EB030E22BFED
:10083800B61A754640EA5C005B084FEA3202B6EB2E
:10084800020E75EB030E22BFB61A754640EA9C00ED
:100858005B084FEA3202B6EB020E75EB030E22BFBD
:10086800B61A754640EADC0055EA060E18D04FEA7B
:10087800051545EA16754FEA06164FEAC30343EA1B
:1008880052734FEAC2025FEA1C1CC0D111F4801FE8
:100898000BD141EA00014FF000004FF0004CB6E7E1
:1008A80011F4801F04BF01430020B4F1FD0C88BF80
:1008B800BCF5E06F3FF6AFAEB5EB030C04BFB6EB8B
:1008C800020C5FEA500C50F1000041EB045170BD7E
:1008D8000EF0004E4EEA113114EB5C04C2BFD4EBAB
:1008E8000C0541EA045170BD41F480114FF0000E2F
:1008F800013C90E645EA060E8DE60CEA135594EAAB
:100908000C0F08BF95EA0C0F3FF43BAF94EA0C0FAD
:100918000AD150EA01347FF434AF95EA0C0F7FF422
:1009280025AF104619462CE795EA0C0F06D152EA76
:1009380003353FF4FDAE1046194622E750EA41065A
:1009480018BF52EA43067FF4C5AE50EA41047FF46B
:100958000DAF52EA43057FF4EBAE12E74A0011D21D
:1009680012F5001211D20DD56FF47873B3EB625201
:100978000ED44FEAC12343F0004343EA505323FA0D
:1009880002F070474FF00000704750EA013002D182
:100998004FF0FF3070474FF00000704753B94AB925
:1009A800002908BF00281CBF4FF0FF314FF0FF306F
:1009B80000F072B9ADF1080C6DE904CE00F006F84C
:1009C800DDF804E0DDE9022304B070472DE9F047C3
:1009D800089E04468846002B4BD18A42154667D9A3
:1009E800B2FA82F24AB1C2F1200701FA02F320FA00
:1009F80007F7954047EA030894404FEA154E230C41
:100A0800B8FBFEF71FFA85FC0EFB178843EA08437C
:100A180007FB0CF1994209D9EB1807F1FF3080F078
:100A28001B81994240F21881023F2B445B1AA4B201
:100A3800B3FBFEF00EFB103344EA034400FB0CFC4E
:100A4800A44509D92C1900F1FF3380F00781A4458A
:100A580040F2048102382C4440EA0740A4EB0C041D
:100A680000271EB1D4400023C6E900433946BDE83B
:100A7800F0878B4209D9002E00F0EB800027C6E9E9
:100A8800000138463946BDE8F087B3FA83F7002FEE
:100A980047D18B4202D3824200F2FA80841A61EB7A
:100AA800030301209846002EE0D0C6E90048DDE7A0
:100AB80002B9FFDEB2FA82F2002A40F08F80491BA9
:100AC8004FEA154E1FFA85F80127B1FBFEFC230CEF
:100AD8000EFB1C1143EA014308FB0CF1994207D9AC
:100AE800EB180CF1FF3002D2994200F2CD80844617
:100AF800591AA3B2B1FBFEF00EFB101443EA0444EA
:100B080008FB00F8A04507D92C1900F1FF3302D2E1
:100B1800A04500F2B6801846A4EB080440EA0C4051
:100B28009FE7C7F1200CBB4022FA0CFE4EEA030EE9
:100B380001FA07F420FA0CF521FA0CF34FEA1E48E3
:100B48002543B3FBF8F92C0C08FB19331FFA8EFA6E
:100B580044EA034309FB0AF49C4202FA07F200FA4A
:100B680007F10BD91EEB030309F1FF3080F08780F2
:100B78009C4240F28480A9F1020973441B1BADB268
:100B8800B3FBF8F008FB103345EA034400FB0AFA0C
:100B9800A24508D91EEB040400F1FF336BD2A2452D
:100BA80069D90238744440EA0940A0FB0289A4EBE1
:100BB8000A044C45C2464B4654D351D0002E69D046
:100BC800B1EB0A0564EB030404FA0CFCFD40FC409D
:100BD8004CEA0505C6E90054002747E7C2F120039F
:100BE80020FA03F7954001FA02F021FA03F34FEADD
:100BF800154E3843010CB3FBFEF71FFA85F80EFBC0
:100C0800173341EA034107FB08F38B4204FA02F465
:100C180007D9691807F1FF3C2FD28B422DD9023F23
:100C28002944CB1A81B2B3FBFEF00EFB103341EA24
:100C3800034100FB08F38B4207D9691800F1FF3C18
:100C480017D28B4215D902382944C91A40EA0747F6
:100C58003BE73746304609E70746E7E61846FBE62E
:100C68004145ABD2B8EB020A69EB0E0201381346D4
:100C7800A4E76046E9E7184695E76746D1E7814665
:100C88007CE702382C4447E7ACF1020C2B442FE7F1
:100C9800384608E73746E9E6704700BF70B50646AC
:100CA8000D4614464FF4FA5000F038FB00FB04F0F0
:100CB800064B83FB00230344C017C0EBE3303368C3
:100CC8003433AD0880B243F8250070BD0180008040
:100CD800B5EEC00AF1EE10FA00D47047B1EE400A42
:100CE800FBE70000002308E01A48DA001A449100E4
:100CF80042184354184951600133032BF4DD154B56
:100D0800164A5A6102211983DA61082119849A6303
:100D1800202199871A644FF48041A3F84410DA65BA
:100D28008021A3F860105A664FF40042A3F86820A7
:100D380002F1804202F5C432C3F880204FF480519A
:100D4800A3F88410C3F888204FF48062A3F88C209D
:100D5800704700BFAC0800204C37893D000C0240AA
:100D6800F0B490B02F4B1C7825462F4B03EBC403EF
:100D780093ED006AD3ED016ADFED2C7A86EE277ACF
:100D88008DED0D7A86EEA77A8DED0E7A00230F93FE
:100D980001AE274F0FCF0FC60FCF0FC697E80F0032
:100DA80086E80F0000232BE010AA02EB810212ED67
:100DB800037A03EB43020A4410A800EB820252EDC7
:100DC8000F7AF8EEE77A67EE877AD800184486003B
:100DD800184A324492ED027A77EE277AC2ED027A07
:100DE80001310229E0DD03EBC3029100114A0A44F4
:100DF800916803EB8500104A02EB80021160013311
:100E0800032B08DC03EBC30291000A4A0A440021C1
:100E180091600021E5E70134024B1C7010B0F0BC72
:100E2800704700BFA8080020000000202506C13E2A
:100E3800283D0008AC0800204009002000220DE0F1
:100E4800D10011448800074B0344D3ED026A93EDA7
:100E5800017AC6EE877AC3ED037A0132032AEFDD01
:100E6800704700BFAC08002010B50446037C012B76
:100E78000CD0022B15D00022018B406902F0B0FD86
:100E88000022218CE06902F0ABFD10BD0122018B2C
:100E9800406902F0A5FD0022218CE06902F0A0FD66
:100EA800F3E70022018B406902F09AFD0122218CB0
:100EB800E06902F095FDE8E730B52DED028B83B0CF
:100EC800002565E0B5EEC08AF1EE10FA3BDD04EBD3
:100ED800C4039A00384B134401221A7404EBC40269
:100EE800930035481844FFF7BFFF0134032C32DC68
:100EF80004EBC4039A00304B134493ED038AB0EE1D
:100F0800480AFFF7E5FE10EE100A2C4B83ED000AA5
:100F1800FFF7BAFA26A3D3E90023FFF70DFBFFF783
:100F28001DFD02AB03EB440323F8080CB5EE408A21
:100F3800F1EE10FAC6D104EBC4039A001E4B134419
:100F480000221A74CAE704EBC4039A001A4B13442C
:100F580002221A74C2E71A4CBDF80020002120466C
:100F6800FFF79CFEBDF8022004212046FFF796FEFD
:100F7800BDF8042008212046FFF790FEBDF80620A2
:100F88000C212046FFF78AFE5A2002F035FE013573
:100F9800B5F5887F05DAFFF7E3FEFFF74FFF00247A
:100FA800A4E703B0BDEC028B30BD00BFAFF30080F7
:100FB80014AE47E13ACEA440AC0800203C0900201A
:100FC800881A0020FEE7000000B595B000210191C5
:100FD8002C4B1A6C42F080521A641B6C03F080533D
:100FE8000193019B0291284B1A6842F480421A60CF
:100FF8001B6803F480430293029B012308934FF478
:101008008033099302230E934FF480020F92082233
:1010180010924FF4A872119212930423139308A804
:1010280001F074FF20BB0F230393022304930023D2
:1010380005934FF4A05306934FF48053079305216B
:1010480003A802F01FFAC0B902F026FB0F4BA3FB5E
:101058000030800902F044FD042002F057FD002210
:1010680011464FF0FF3002F0F5FC15B05DF804FBB7
:101078004FF41D710648FFF7A5FF40F2812104488F
:10108800FFF7A0FF0038024000700040D34D621007
:10109800583D000808B502F083FDFFF795FF00F002
:1010A80031F800F0DFF800F04DF900F07FF900F0BA
:1010B800B1F900F0E3F900F0D1FA00F04BFB00F0D1
:1010C80067FB0E4C204600F069FFFFF70BFE00217E
:1010D800204601F03BFB0421204601F037FB0821A4
:1010E800204601F033FB0C21204601F02FFBFFF7CF
:1010F800E3FE642002F080FDFBE700BF881A0020B1
:10110800704700002DE9F0418CB0002401944F4B4A
:101118001A6B42F010021A631A6B02F01002019265
:10112800019A02941A6B42F004021A631A6B02F0D5
:1011380004020292029A03941A6B42F080021A6324
:101148001A6B02F080020392039A04941A6B42F01D
:1011580001021A631A6B02F001020492049A0594C0
:101168001A6B42F002021A631A6B02F0020205922D
:10117800059A06941A6B42F008021A631B6B03F077
:1011880008030693069BDFF8D88022464CF2AA0192
:10119800404602F025FC2E4F22464FF4A051384617
:1011A80002F01EFC2B4E22460121304602F018FCAC
:1011B8004FF2FE53079303250895099407A9304673
:1011C80002F090FA4EF62F0307930895099407A9A1
:1011D800384602F087FA49F63C13079308950994B4
:1011E80007A91D4802F07EFA4FF2F73307930895D6
:1011F800099407A9194802F075FA40F65573079340
:101208000895099407A9404602F06CFA4CF2AA0323
:1012180007930125089509940A9407A9404602F006
:1012280061FA4FF4A0530793089509940A9407A903
:10123800384602F057FA0795089509940A9407A9C1
:10124800304602F04FFA0CB0BDE8F0810038024099
:101258000008024000100240000002400004024062
:10126800000C024000B585B01648174B03604FF4D8
:101278008033436000238360036183610362C36238
:10128800124A8262C3600122C2610363426100F0B4
:10129800E9FB68B90E23009301230193002302930D
:1012A8006946084800F0D4FC38B905B05DF804FB7D
:1012B80048210748FFF786FEECE752210448FFF76C
:1012C80081FEF2E7401A0020002001400100000FD3
:1012D800683D000802680F4B9A4200D0704700B57D
:1012E80087B00021009103F58C335A6C42F4807268
:1012F8005A645B6C03F480730093009B1023019382
:1013080003230293039101A9034802F0EBF907B004
:101318005DF804FB002001400008024010B50446B7
:10132800B0F5FA6F05D3054890FBF4F0013880B2A8
:1013380010BD34210248FFF745FEF4E700BD010562
:10134800783D000800B58DB01548164B03600023A2
:1013580043608360C3600361436101220392049385
:10136800059206930793089309920A930B9303A98E
:1013780000F03EFF50B900230193029301A90848E9
:1013880001F05AFA38B90DB05DF804FB5821064847
:10139800FFF718FEEFE75F210348FFF713FEF2E7B8
:1013A800781B002000000140783D000800B58DB092
:1013B8001548164B0360002343608360C3600361D4
:1013C80001220392049305920693079308930992C6
:1013D8000A930B9303A900F00BFF50B90023019364
:1013E800029301A9084801F027FA38B90DB05DF851
:1013F80004FB78210648FFF7E5FDEFE77F21044865
:10140800FFF7E0FDF2E700BF3C1B002000040040AE
:10141800783D000800B58DB01548164B03600023D1
:1014280043608360C36003610122039204930592C1
:1014380006930793089309920A930B9303A900F064
:10144800D7FE50B900230193029301A9084801F07F
:10145800F3F938B90DB05DF804FB98210648FFF799
:10146800B1FDEFE79F210448FFF7ACFDF2E700BFAD
:10147800C41A002000080040783D000800B58DB06F
:101488001548164B0360002343608360C360036103
:1014980001220392049305920693079308930992F5
:1014A8000A930B9303A900F0A3FE50B900230193FC
:1014B800029301A9084801F0BFF938B90DB05DF8E9
:1014C80004FBB8210648FFF77DFDEFE7BF2104487C
:1014D800FFF778FDF2E700BF001B0020000C00407A
:1014E800783D000800B58BB003683B4A93420BD0A7
:1014F8003A4A934223D03A4A934239D0394A9342DE
:1015080050D00BB05DF804FB0023019302F59C3228
:10151800516C41F001015164526C02F001020192D8
:10152800019A4FF4206205920222069207930893CB
:101538000123099305A92C4802F0D4F8E1E7002318
:10154800029302F50D32116C41F002011164126C24
:1015580002F002020292029AC02205920222069228
:1015680007930893099205A9204802F0BBF8C8E739
:101578000023039302F50C32116C41F0040111644D
:10158800126C02F004020392039A4FF4405205923F
:101598000222069207930893099205A9144802F0BB
:1015A800A1F8AEE70023049302F50B32116C41F069
:1015B80008011164126C02F008020492049A0322D2
:1015C80005920222069207930893099205A90748F3
:1015D80002F088F895E700BF0000014000040040D1
:1015E80000080040000C00400010024000000240CB
:1015F800000C02400268094B9A4200D0704782B042
:1016080000230193064B5A6C42F002025A645B6C49
:1016180003F002030193019B02B0704700040140EC
:101628000038024002680B4B9A4200D0704700B560
:1016380087B04FF47073019302230293002303933E
:1016480004930323059301A9034802F04BF807B05C
:101658005DF804FB000401400008024030B591B079
:10166800394C3A4B2360002565602023A3604FF472
:10167800FA50FFF753FEE06025616561204600F0EF
:101688003DFD00283DD100230E930F930EA92E484F
:1016980001F0D2F8002839D160230793002208927C
:1016A80009920A920B920C920D9207A9264800F013
:1016B800BBFE00282FD1042207A9234800F0B4FE5E
:1016C80070BB082207A9204800F0AEFE68BB0C22B8
:1016D80007A91D4800F0A8FE60BB002300930193F2
:1016E8000293039304934FF40052059206936946BC
:1016F800154801F013F910BB1348FFF793FF11B019
:1017080030BDD1211248FFF75DFCBCE7D821104855
:10171800FFF758FCC0E7E4210D48FFF753FCCAE780
:10172800E9210B48FFF74EFCCBE7EE210848FFF70D
:1017380049FCCCE7F3210648FFF744FCCDE7FF213D
:101748000348FFF73FFCD7E7881A00200004014050
:10175800783D000808B50B480B4B03604FF4E133A4
:10176800436000238360C36003610C22426183618C
:10177800C36101F037FB00B908BD43210348FFF7F7
:1017880021FCF9E7F41B002000100140883D000807
:1017980008B50B480B4B03604FF4E133436000235B
:1017A8008360C36003610C2242618361C36101F0FD
:1017B80019FB00B908BD56210348FFF703FCF9E7F8
:1017C800B41B002000480040883D000800B589B0DF
:1017D8000368204A934205D01F4A93421ED009B09D
:1017E8005DF804FB002301931C4B5A6C42F0100275
:1017F8005A645B6C03F010030193019B4FF4C063C0
:1018080003930223049301230593032306930723D9
:10181800079303A9124801F065FFE0E7002302934C
:101828000E4B1A6C42F480221A641B6C03F480235A
:101838000293029B4FF44063039302230493012312
:101848000593032306930723079303A9054801F08B
:1018580049FFC4E70010014000480040003802403A
:1018680000000240000402407047FEE7FEE7FEE782
:10187800FEE770477047704708B502F0ABF902F011
:1018880064F908BD10B582B000240094214B5A6C4D
:1018980042F480425A645A6C02F480420092009AE0
:1018A80001941A6C42F080521A641B6C03F0805346
:1018B8000193019B032002F0AFF8224621466FF006
:1018C8000B0002F0C7F8224621466FF00A0002F02A
:1018D800C1F8224621466FF0090002F0BBF8224603
:1018E80021466FF0040002F0B5F8224621466FF059
:1018F800030002F0AFF8224621466FF0010002F023
:10190800A9F8224621464FF0FF3002F0A3F802B0B2
:1019180010BD00BF0038024010B504464E4B5A684F
:1019280022F440325A605A6841680A435A60026891
:10193800536823F48073536002685368016943EA6B
:10194800012353600268536823F0407353600268B0
:10195800536881680B4353600268936823F40063FB
:10196800936002689368C1680B439360826A3B4B3B
:101978009A4259D00268936823F0706393600268B2
:101988009368816A0B4393600268936823F040531D
:10199800936002689368C16A0B43936022689368F6
:1019A80023F00203936022689368A16943EA410324
:1019B8009360236A002B48D0636A013B072B3ED80B
:1019C8002268536843F4006353602268536823F421
:1019D8006043536021684B68626A013A43EA4233C4
:1019E8004B602268D36A23F47003D3622168CB6A00
:1019F800E269013A43EA0253CB622268936823F40E
:101A08000073936022689368216B43EA41239360D3
:101A18002268936823F480639360226893686169FD
:101A280043EA8123936010BD0268936823F07063D2
:101A380093600268936823F040539360AEE740F2E6
:101A480027610748FFF75CFBBAE72268536823F46D
:101A580000635360C5E700BF002301400100000F89
:101A68009C3D0008002800F0EB8010B50446036890
:101A7800744A93420CD002F58072934208D002F562
:101A88008072934204D040F20B116F48FFF738FB85
:101A9800636843B1B3F5803F05D0B3F5003F02D08A
:101AA800B3F5403F6FD1A36843B1B3F1807F05D050
:101AB800B3F1007F02D0B3F1407F6AD12369012BD3
:101AC8006DD8A369012B70D8A36A7BB3B3F1807F6B
:101AD8002CD0B3F1007F29D0B3F1407F26D0B3F1E9
:101AE800806F23D0B3F1A06F20D0B3F1C06F1DD0A9
:101AF800B3F1E06F1AD0B3F1006F17D0B3F1106FE4
:101B080014D0B3F1206F11D0B3F1306F0ED0B3F110
:101B1800406F0BD0B3F1506F08D0B3F1606F05D0B0
:101B2800B3F1706F02D0494A934244D1E36813B1CC
:101B3800B3F5006F45D1E369013B0F2B47D8236B01
:101B4800012B4AD86369022B4DD8236A012B50D840
:101B5800A26A3E4B9A420AD0E36A43B1B3F1805F6E
:101B680005D0B3F1005F02D0B3F1405F47D1236CD9
:101B7800002B4AD0236C13F0100F4DD00120002306
:101B880084F83C3010BD4FF486712F48FFF7B8FA3F
:101B980089E740F20D112C48FFF7B2FA8EE74FF4AF
:101BA80087712948FFF7ACFA8BE740F20F112648F6
:101BB800FFF7A6FA88E74FF488712348FFF7A0FAE1
:101BC800B4E740F211112048FFF79AFAB3E74FF44F
:101BD80089711D48FFF794FAB1E740F213111A48CA
:101BE800FFF78EFAAEE74FF48A711748FFF788FAC5
:101BF800ABE740F215111448FFF782FAA8E740F264
:101C080019111148FFF77CFAB1E7636484F83C3096
:101C18002046FFF75FFBADE7236C23F4885323F0DE
:101C2800020343F0020323642046FFF775FE0020F9
:101C38006064236C23F0030343F0010323649EE7ED
:101C480001207047002001409C3D00080100000F62
:101C580030B583B005460C46002301930B68122B60
:101C68004ED86368013B0F2B50D8A368072B53D875
:101C780095F83C30012B00F0C780012385F83C30F3
:101C88002368092B4ED92868C2689BB203EB43032B
:101C98001E3B072101FA03F322EA0303C360286805
:101CA800C268A168238803EB43031E3B01FA03F3D0
:101CB8001343C3606368062B4AD82868426B03EB5A
:101CC8008303053B1F2101FA03F322EA030343635D
:101CD8002868426B636803EB8303053B218801FA9C
:101CE80003F3134343632A68484B9A4260D02A6837
:101CF800464B9A4265D0002085F83C0003B030BDC1
:101D080040F215514248FFF7FBF9AAE740F2165195
:101D18003F48FFF7F5F9A8E740F217513C48FFF7AD
:101D2800EFF9A5E7286802699BB203EB4303072193
:101D380001FA03F322EA0303036128680269A16830
:101D4800238803EB430301FA03F313430361B1E769
:101D58000C2B16D82868026B03EB8303233B1F2147
:101D680001FA03F322EA030303632868026B63683A
:101D780003EB8303233B218801FA03F31343036333
:101D8800B1E72868C26A03EB8303413B1F2101FACC
:101D980003F322EA0303C3622868C26A636803EB99
:101DA8008303413B218801FA03F31343C3629AE793
:101DB8002368122B9BD1174A536843F4800353605E
:101DC80095E72368103B012B95D8124A536843F4D2
:101DD800000353602368102B8DD10F4B1B6802F151
:101DE800467202F52E3202F28332A2FB03239B0CC9
:101DF80003EB83035A00019202E0019B013B01932C
:101E0800019B002BF9D176E7022077E700200140FB
:101E18009C3D0008002301408808002070B4036A34
:101E280023F001030362036A4268846924F073049F
:101E38000D6845EA040623F002048B6823430C4D21
:101E4800A84202D00B4CA0420BD123F00803CD6866
:101E58002B4323F0040322F440724D6915438A6929
:101E68002A43426086614A684263036270BC7047D5
:101E780000000140000401402DE9F04104460E46EF
:101E8800036A23F480730362056A4768C36923F011
:101E980073080B6843EA080825F400758B6845EA5F
:101EA80003251F4B984203D003F5806398421CD149
:101EB800F3680BB1082B20D1B369B3F5007F00D0CC
:101EC8000BBB7369B3F5807F00D013BB25F40065A5
:101ED800F36845EA032525F4806527F440577369BC
:101EE80047EA0317B36947EA03176760C4F81C8019
:101EF8007368E3632562BDE8F08141F21731094850
:101F0800FFF7FEF8D8E741F218310648FFF7F8F86E
:101F1800D7E741F219310348FFF7F2F8D6E700BFD7
:101F280000000140D43D00082DE9F04104460F4669
:101F3800036A23F480530362056AD0F80480C669F3
:101F480026F4E6460B6846EA032625F400558B6816
:101F580045EA03350F4B984203D003F58063984256
:101F680009D17B69B3F5807F00D063B928F4804834
:101F78007B6948EA8318C4F80480E6617B682364B7
:101F88002562BDE8F08141F25D310348FFF7B8F8FA
:101F9800ECE700BF00000140D43D000810B504463E
:101FA8000368244A934237D0B3F1804F34D0A2F566
:101FB8007C42934230D002F5806293422CD002F5E5
:101FC8008062934228D002F58062934224D002F5C1
:101FD8008062934220D002F5704293421CD002F5F1
:101FE8007052934218D002F58062934214D002F5E1
:101FF8008062934210D0A2F5983293420CD002F539
:102008008062934208D002F58062934204D04FF474
:1020180099710948FFF774F8022384F83930226867
:10202800136843F001031360012384F8393000205A
:1020380010BD00BF00000140D43D000803682E4ACF
:10204800904212D0B0F1804F0FD0A2F57C4290425E
:102058000BD002F58062904207D002F58062904270
:1020680003D002F57842904203D123F070034A6806
:102078001343214A90422AD0B0F1804F27D0A2F5CD
:102088007C42904223D002F5806290421FD002F534
:10209800806290421BD002F57842904217D002F538
:1020A8007052904213D002F5806290420FD002F530
:1020B800806290420BD0A2F59832904207D002F588
:1020C8008062904203D002F58062904203D123F4EB
:1020D8004073CA68134303608B68C3620B688362EA
:1020E800054B984203D003F58063984201D10B69F0
:1020F800036301234361704700000140002870D04A
:1021080010B504460368384A934237D0B3F1804F7C
:1021180034D0A2F57C42934230D002F580629342DB
:102128002CD002F58062934228D002F58062934257
:1021380024D002F58062934220D002F57042934287
:102148001CD002F57052934218D002F58062934277
:1021580014D002F58062934210D0A2F598329342CF
:102168000CD002F58062934208D002F58062934257
:1021780004D040F2F1311D48FEF7C2FFA3683BB11D
:10218800102B05D0202B03D0402B01D0602B16D16B
:1021980023692BB1B3F5807F02D0B3F5007F14D14A
:1021A80094F83930BBB1022384F83930211D2068F6
:1021B800FFF744FF012384F83930002010BD40F2B6
:1021C800F2310A48FEF79CFFE2E740F2F331074894
:1021D800FEF796FFE4E784F838302046FFF70AFA5E
:1021E800E1E70120704700BF00000140D43D00082E
:1021F800002800F0D180F8B505460C460368674A08
:1022080093421FD0B3F1804F1CD0A2F57C42934279
:1022180018D002F58062934214D002F5806293428E
:1022280010D002F5784293420CD002F570529342D6
:1022380008D0A2F59432934204D040F6FA015848E7
:10224800FEF75EFF2368013B022B69D8A368013BB8
:10225800022B6BD8A369013B022B6DD863681BB1B5
:10226800022B01D00A2B6DD163691BB1022B01D05F
:102278000A2B6DD1E3682BB1042B03D0082B01D0B6
:102288000C2B6BD1E3692BB1042B03D0082B01D0A5
:102298000C2B69D123690F2B6CD8236A0F2B6FD8AD
:1022A80095F83930002B71D0022385F8393029464A
:1022B80051F8042B936823F0070393602868FFF70D
:1022C800BDFE29688A688E690F6A2068104326F463
:1022D800407626F00306A268A36942EA0323334343
:1022E80023F47C4323F0FC03E668E26946EA02260D
:1022F8001E43226A1303226943EA0213334327F079
:10230800AA076268646942EA04123A438860296845
:102318008B612B681A62012385F839300020F8BDDB
:1023280040F6FB011E48FEF7EBFE8FE740F6FC0186
:102338001B48FEF7E5FE8DE740F6FD011848FEF75D
:10234800DFFE8BE740F6FE011548FEF7D9FE8BE766
:1023580040F6FF011248FEF7D3FE8BE74FF41061F9
:102368000F48FEF7CDFE8DE740F601110C48FEF749
:10237800C7FE8FE740F602110948FEF7C1FE8CE759
:1023880040F603110648FEF7BBFE89E785F83830AA
:102398002846FFF7A7F887E70120704700000140AB
:1023A800D43D00082DE9F04104460E46036A23F0A7
:1023B80010030362056AD0F80480876927F4E647AA
:1023C8000B6847EA032725F020058B6845EA0315C3
:1023D800134B984203D003F58063984212D1F368F7
:1023E8000BB1082B16D125F08005F36845EA0315D3
:1023F80025F0400528F44068736948EA8308B36902
:1024080048EA8308C4F80480A7617368A363256257
:10241800BDE8F08141F205210248FEF771FEE2E7CE
:1024280000000140D43D000890F83830012B00F03E
:10243800318170B516460D460446012380F83830C0
:102448003AB1042A05D0082A03D00C2A01D0182A48
:1024580020D12B68602B01D0702B21D1AB680BB138
:10246800022B23D12B690BB1042B25D1022384F82D
:1024780039300C2E6DD8DFE816F025006C006C00A2
:102488006C0073006C006C006C00AC006C006C009D
:102498006C00DC0040F648417F48FEF731FED8E783
:1024A80040F649417C48FEF72BFED7E740F64A4103
:1024B8007948FEF725FED5E740F64B417648FEF70A
:1024C8001FFED3E72368754A93422FD0B3F1804F9C
:1024D8002CD0A2F57C42934228D002F58062934228
:1024E80024D002F58062934220D002F578429342CC
:1024F8001CD002F57052934218D002F580629342C4
:1025080014D002F58062934210D0A2F5983293421B
:102518000CD002F58062934208D002F580629342A3
:1025280004D040F653415C48FEF7EAFD294620688E
:10253800FFF774FC2268936943F0080393612268EB
:10254800936923F0040393612268936929690B4313
:102558009361012384F83930002084F8380070BD75
:1025680023684E4A93421FD0B3F1804F1CD0A2F586
:102578007C42934218D002F58062934214D002F54F
:102588008062934210D002F5784293420CD002F553
:102598007052934208D0A2F59432934204D040F688
:1025A80062413D48FEF7ACFD29462068FFF7FAFE78
:1025B8002268936943F4006393612268936923F462
:1025C8008063936122689369296943EA01239361CF
:1025D800BFE72368314A934217D0B3F1804F14D034
:1025E800A2F57C42934210D002F5806293420CD04F
:1025F80002F58062934208D002F57842934204D0F3
:1026080040F671412448FEF77BFD29462068FFF714
:1026180033FC2268D36943F00803D3612268D36985
:1026280023F00403D3612268D36929690B43D3617A
:102638008FE72368194A934217D0B3F1804F14D01B
:10264800A2F57C42934210D002F5806293420CD0EE
:1026580002F58062934208D002F57842934204D092
:102668004FF448610C48FEF74BFD29462068FFF7F8
:102678005BFC2268D36943F40063D3612268D369A1
:1026880023F48063D3612268D369296943EA01236B
:10269800D3615EE702207047D43D00080000014086
:1026A80070B504460D461646264B98422FD0B0F119
:1026B800804F2CD0A3F57C43984228D003F5806343
:1026C800984224D003F58063984220D003F57843DC
:1026D80098421CD003F57053984218D003F58063D4
:1026E800984214D003F58063984210D0A3F598332C
:1026F80098420CD003F58063984208D003F58063B4
:10270800984204D041F288210F48FEF7F9FC65B1E0
:10271800042D0AD0082D08D00C2D06D0182D04D071
:1027280041F289210848FEF7EBFC012303FA05F280
:10273800236A23EA02032362236A06FA05F51D4386
:10274800256270BD00000140D43D000838B504463C
:102758000D460368304A934212D0B3F1804F0FD030
:10276800A2F57C4293420BD002F58062934207D0D7
:1027780002F58062934203D002F57842934206D173
:10278800E5B1042D1AD0082D18D00C2D16D0234AE7
:1027980093422BD0224A93422DD0224A93422DD0E5
:1027A800214A93422DD0214A93422FD0204A934266
:1027B8002FD040F252411F48FEF7A2FC01222946C1
:1027C8002068FFF76DFF2368134A934203D002F590
:1027D8008062934203D15A6C42F400425A642268E0
:1027E800136843F001031360002038BD002DE5D0C5
:1027F800042DCFD1E2E7002DE0D0CEE7002DDDD0CB
:10280800CEE7002DDAD0042DCDD1D7E7002DD5D0D5
:10281800CCE7002DD2D0CCE70000014000400140B9
:10282800004401400048014000180040001C0040DE
:1028380000200040D43D000838B504460D46036822
:10284800344A93421FD0B3F1804F1CD0A2F57C428A
:10285800934218D002F58062934214D002F5806248
:10286800934210D002F5806293420CD002F5806248
:10287800934208D002F57042934204D040F24A6174
:102888002548FEF73DFC2B686BB1102B0BD0202B95
:1028980009D0302B07D0402B05D0502B03D0602B0C
:1028A80001D0702B27D16B68802B00D04BBB94F8DC
:1028B8003830012B2BD0012284F83820022384F8E9
:1028C800393021684B6823F070034B6021684B68EE
:1028D800286803434B6021688B6823F080038B6072
:1028E80021688B68686803438B6084F8392000206E
:1028F80084F8380038BD40F24B610748FEF700FC09
:10290800D1E740F24C610448FEF7FAFBCFE702201A
:10291800F0E700BF000001400C3E000838B504464F
:102928000D460368454A934208D002F580629342F7
:1029380004D040F272614248FEF7E2FB2B68B3F51F
:10294800006F01D0002B4DD16B68B3F5806F01D0BB
:10295800002B4DD1AB6843B1B3F5807F05D0B3F5FB
:10296800007F02D0B3F5407F48D1EB68FF2B4BD8EE
:102978002B69B3F5805F01D0002B4BD16B6913B184
:10298800B3F5005F4CD1AB69B3F5804F01D0002B94
:102998004CD194F83830012B4ED0012384F83830CC
:1029A800EB6823F44073AA68134323F480636A68CE
:1029B800134323F400632A68134323F480532A69DA
:1029C800134323F400536A69134323F48043AA6929
:1029D800134323F40043134322685364002084F80C
:1029E800380038BD40F273611548FEF789FBABE744
:1029F80040F274611248FEF783FBABE740F2756161
:102A08000F48FEF77DFBB0E740F276610C48FEF711
:102A180077FBADE740F277610948FEF771FBADE758
:102A28004FF4CF610648FEF76BFBACE740F27961E3
:102A38000348FEF765FBACE70220D2E7000001403F
:102A48000C3E00082DE9F84304464268B44B9A420C
:102A580000F29C80E3681BB1B3F5005F40F09C80F6
:102A6800236933B1B3F5806F03D0B3F5C06F40F07D
:102A7800998063694FF6F372134200D123B940F687
:102A88008811A848FEF73CFB21680A6922F44052E5
:102A9800E36813430B612168CA6822F4164222F0E6
:102AA8000C02A3682069034360690343E069034398
:102AB8001343CB6021684A6922F44072A369134327
:102AC8004B61E369B3F5004F72D02368964A93428D
:102AD80000F02E8102F58062934200F0298100F017
:102AE800E1FD00EB800000EB80006568AD00B0FB05
:102AF800F5F58E4FA7FB05356D092E0100F0D2FDC7
:102B080000EB800000EB80006568AD00B0FBF5F9D4
:102B180000F0C8FD00EB800000EB80006568AD00A8
:102B2800B0FBF5F5A7FB05356D094FF0640808FB08
:102B380015952D013235A7FB05356D0905F0F00512
:102B4800354400F0AFFD00EB800000EB80006668C4
:102B5800B600B0FBF6F600F0A5FD00EB800000EB38
:102B6800800063689B00B0FBF3F0A7FB00304009CE
:102B780008FB10684FEA081808F13208A7FB083765
:102B8800C7F3431723682F449F6027E140F6851158
:102B98006448FEF7B5FA5DE740F686116148FEF72E
:102BA800AFFA5DE740F687115E48FEF7A9FA60E7DD
:102BB80023685D4A93425BD002F58062934257D006
:102BC80000F070FD00EB800000EB800065686D0090
:102BD800B0FBF5F5554FA7FB05356D092E0100F043
:102BE80061FD00EB800000EB800065686D00B0FBC4
:102BF800F5F900F057FD00EB800000EB80006568F8
:102C08006D00B0FBF5F5A7FB05356D094FF06408BD
:102C180008FB1595ED003235A7FB05356D096D00EC
:102C280005F4F875354400F03DFD00EB800000EB3D
:102C3800800066687600B0FBF6F600F033FD00EB26
:102C4800800000EB800063685B00B0FBF3F3A7FB38
:102C580003235B0908FB13684FEAC80808F1320828
:102C6800A7FB0837C7F3421723682F449F60B5E0D6
:102C780000F028FD00EB800000EB800065686D0027
:102C8800B0FBF5F5294FA7FB05356D092E0100F0BE
:102C980019FD00EB800000EB800065686D00B0FB5B
:102CA800F5F900F00FFD00EB800000EB800065688F
:102CB8006D00B0FBF5F5A7FB05356D094FF064080D
:102CC80008FB1595ED003235A7FB05356D096D003C
:102CD80005F4F875354400F0F5FC00EB800000EBD6
:102CE800800066687600B0FBF6F600F0EBFC00EBBF
:102CF800800000EB800063685B00B0FBF3F3A7FB88
:102D080003235B0908FB13684FEAC80808F1320877
:102D1800A7FB0837C7F3421723682F449F605DE07D
:102D2800A037A000443E0008001001401F85EB5169
:102D380000F0C8FC00EB800000EB80006568AD0087
:102D4800B0FBF5F5264FA7FB05356D092E0100F000
:102D5800B9FC00EB800000EB80006568AD00B0FBBB
:102D6800F5F900F0AFFC00EB800000EB800065682F
:102D7800AD00B0FBF5F5A7FB05356D094FF064080C
:102D880008FB15952D013235A7FB05356D0905F0B2
:102D9800F005354400F096FC00EB800000EB800065
:102DA8006668B600B0FBF6F600F08CFC00EB80001D
:102DB80000EB800063689B00B0FBF3F0A7FB0030DA
:102DC800400908FB10684FEA081808F13208A7FB09
:102DD8000837C7F3431723682F449F60BDE8F8837B
:102DE8001F85EB51002800F08B8010B504468369DD
:102DF800002B55D00368434A934210D0A2F54C42A9
:102E080093420CD002F58062934208D002F54C42FE
:102E1800934204D04FF480713B48FEF771F9A369DF
:102E280043B1B3F5807F05D0B3F5007F02D0B3F589
:102E3800407F2FD1A36813B1B3F5805F4ED1E3690A
:102E480013B1B3F5004F4FD194F83930002B51D05E
:102E5800242384F839302268D36823F40053D360DC
:102E68002046FFF7EFFD2268136923F490431361AE
:102E78002268536923F02A0353612268D36843F414
:102E88000053D3600020E063202384F8393084F8AD
:102E98003A3010BD40F201111B48FEF731F9C9E77D
:102EA8000368184A9342C5D0A2F54C429342C1D058
:102EB80002F580629342BDD002F580629342B9D098
:102EC80002F580629342B5D002F544429342B1D0F4
:102ED80040F205110C48FEF713F9ABE740F2071171
:102EE8000948FEF70DF9AAE74FF484710648FEF782
:102EF80007F9A9E784F838302046FEF767FCA7E70A
:102F08000120704700100140443E0008002800F0EE
:102F18003C8270B582B0044603680F2B39D8236809
:102F280013F0010F4DD063682BB1B3F5803F02D089
:102F3800B3F5A02F32D1A54B9B6803F00C03042BEB
:102F480036D0A24B9B6803F00C03082B2BD0636888
:102F5800B3F5803F5FD0B3F5A02F62D09B4B1A68C2
:102F680022F480321A601A6822F480221A60636898
:102F7800002B60D000F03AFE0546944B1B6813F412
:102F8800003F1ED100F032FE401B6428F5D9032013
:102F980000E2F8218E48FEF7B3F8C0E7FD218C481F
:102FA800FEF7AEF8C7E7894B5B6813F4800FCED005
:102FB800864B1B6813F4003F03D06368002B00F0B6
:102FC800E681236813F0020F67D0E368012B41D82C
:102FD80023691F2B44D87D4B9B6813F00C0F4AD0F4
:102FE8007A4B9B6803F00C03082B3FD0E368002B57
:102FF80077D0784B01221A6000F0F8FD0546734B34
:103008001B6813F0020F63D100F0F0FD401B02288B
:10301800F5D90320BEE16D4A136843F48033136089
:10302800A5E76A4B1A6842F480221A601A6842F4CB
:1030380080321A609BE700F0D9FD0546634B1B6898
:1030480013F4003FBDD000F0D1FD401B6428F5D932
:1030580003209FE140F22F115D48FEF751F8B7E7D2
:103068004FF498715A48FEF74BF8B4E7574B5B6832
:1030780013F4800FBAD1554B1B6813F0020F04D01C
:10308800E368012B01D0012084E1504A136823F042
:10309800F803216943EAC1031360236813F0080F9A
:1030A80049D06369012B2ED8636993B34A4B012237
:1030B8001A6000F09BFD0546444B5B6F13F0020F4E
:1030C80039D100F093FD401B0228F5D9032061E1B6
:1030D8003E4A136823F0F803216943EAC1031360E9
:1030E800DBE73C4B00221A6000F080FD0546374BB9
:1030F8001B6813F0020FD0D000F078FD401B0228A7
:10310800F5D9032046E14FF4B8713148FDF7F8FFCF
:10311800CAE7314B00221A6000F068FD05462B4BC8
:103128005B6F13F0020F06D000F060FD401B022811
:10313800F5D903202EE1236813F0040F00F08780EF
:10314800A368012B01D9052B38D1204B1B6C13F038
:10315800805F39D1002301931C4B1A6C42F08052D6
:103168001A641B6C03F080530193019B01251B4BD0
:103178001B6813F4807F33D0A368012B44D0052B40
:1031880048D0124B1A6F22F001021A671A6F22F008
:1031980004021A67A368002B46D000F027FD0646F4
:1031A8000A4B1B6F13F0020F4FD100F01FFD801B5D
:1031B80041F288339842F3D90320EBE04FF4CE7103
:1031C8000348FDF79DFFC0E70025D0E7003802401F
:1031D8007C3E000800004742800E474200700040D5
:1031E8006E4A136843F48073136000F0FFFC0646D0
:1031F8006A4B1B6813F4807FBED100F0F7FC801B7C
:103208000228F5D90320C5E0654A136F43F001038E
:103218001367BFE7624B1A6F42F004021A671A6F0E
:1032280042F001021A67B5E700F0E0FC06465C4B85
:103238001B6F13F0020F08D000F0D8FC801B41F27E
:1032480088339842F3D90320A4E0002D3BD1A36929
:10325800022B3ED8A369002B00F09B80504A92684D
:1032680002F00C02082A00F09780022B79D1E3695A
:1032780013B1B3F5800F32D1236A3F2B35D8636A77
:10328800323BB3F5BF7F36D8A36A022B05D0042B97
:1032980003D0062B01D0082B33D1E36A023B0D2B58
:1032A80035D8404B00221A6000F0A0FC05463C4B84
:1032B8001B6813F0007F30D000F098FC401B0228F8
:1032C800F5D9032066E0364A136C23F08053136463
:1032D800BDE740F2DF113448FDF712FFBAE74FF4BB
:1032E800F4713148FDF70CFFC6E740F2E9112E48AA
:1032F800FDF706FFC3E74FF4F5712B48FDF700FF14
:10330800C2E740F2EB112848FDF7FAFEC5E74FF493
:10331800F6712548FDF7F4FEC3E7E369226A134313
:10332800626A43EA8213A26A5208013A43EA0243F4
:10333800E26A43EA02631A4A53601A4B01221A608E
:1033480000F054FC0446164B1B6813F0007F06D1AE
:1033580000F04CFC001B0228F5D903201AE00020DD
:1033680018E0104B00221A6000F040FC04460C4B99
:103378001B6813F0007F06D000F038FC001B022801
:10338800F5D9032006E0002004E001207047012061
:1033980000E0002002B070BD0120FBE70070004093
:1033A80000380240600047427C3E0008324B9B6870
:1033B80003F00C03042B5CD0082B01D02F48704776
:1033C8002DE9F04B2C4B5A6802F03F025B6813F46E
:1033D800800F2BD0284B5B68C3F388131E46002749
:1033E8005C010025E41A65EB0705A90141EA94612F
:1033F800A001001B61EB0501CB0043EA5073C40038
:10340800A01943EB07014B0243EAD053440220467C
:1034180019460023FDF7C2FA174B5B68C3F3014353
:1034280001335B00B0FBF3F0BDE8F08B124B5B6837
:10343800C3F388131E4600275C010025E41A65EBD8
:103448000705A90141EA9461A001001B61EB050190
:10345800CB0043EA5073C400A01943EB07018B0269
:1034680043EA90538402204619460023FDF796FA52
:10347800D2E70348704700BF003802400024F40038
:1034880000127A00002800F0F98070B504460D4655
:103498000368013B0E2B11D8072D15D8794B1B68F3
:1034A80003F00F03AB4215D2EBB2764A13701368E0
:1034B80003F00F03AB420DD0012070BD4FF414711F
:1034C8007148FDF71DFEE7E740F251216E48FDF710
:1034D80017FEE3E7236813F0020F29D013F0040F57
:1034E80004D06A4A936843F4E0539360236813F066
:1034F800080F04D0654A936843F460439360A36857
:103508007BB1802B0DD0902B0BD0A02B09D0B02BEA
:1035180007D0C02B05D0D02B03D0E02B01D0F02B47
:1035280033D15A4A936823F0F003A1680B439360A0
:10353800236813F0010F42D06368032B2BD863680C
:10354800012B2ED09A1E012A32D9504A126812F045
:10355800020F00F095804D498A6822F00302134358
:103568008B6000F043FB0646484B9B6803F00C0356
:103578006268B3EB820F22D000F038FB801B41F267
:1035880088339842F0D9032097E74FF41D713E48DD
:10359800FDF7B6FDC5E740F27B213B48FDF7B0FDDE
:1035A800CDE73A4A126812F4003FD4D1012084E7EB
:1035B800364A126812F0007FCDD101207DE7314BE9
:1035C8001B6803F00F03AB4209D9EAB22D4B1A70FE
:1035D8001B6803F00F03AB4201D001206DE723689D
:1035E80013F0040F14D0E3685BB1B3F5805F08D023
:1035F800B3F5A05F05D0B3F5C05F02D0B3F5E05FC7
:1036080030D1224A936823F4E053E1680B43936076
:10361800236813F0080F15D023695BB1B3F5805FF9
:1036280008D0B3F5A05F05D0B3F5C05F02D0B3F5FD
:10363800E05F1DD1154A936823F46043216943EA8A
:10364800C1039360FFF7B2FE104B9B68C3F30313EB
:103658000F4AD35CD8400F4B1860002000F07AFA6C
:1036680000202AE740F2B9210748FDF749FDC8E7DD
:103678004FF430710448FDF743FDDBE70120704744
:1036880001201AE7003C02407C3E00080038024056
:10369800243F000888080020014B1868704700BFC5
:1036A8008808002008B5FFF7F7FF044B9B68C3F3B1
:1036B8008223034AD35CD84008BD00BF00380240CB
:1036C800343F000808B5FFF7E7FF044B9B68C3F3D6
:1036D8004233034AD35CD84008BD00BF00380240DB
:1036E800343F00082DE9F04782B080460E46B64BBD
:1036F800984223D003F5806398421FD003F5806376
:1037080098421BD003F58063984217D003F5806375
:10371800984213D003F5806398420FD003F5806375
:1037280098420BD003F58063984207D003F5806375
:10373800984203D0C321A548FDF7E2FC33689AB24A
:1037480012B11B0C1B041BB1C421A048FDF7D8FC07
:103758007368012B1ED9112B1CD0022B1AD0122BE7
:1037680018D09B4A934215D002F58012934211D08B
:1037780002F5801293420DD0A2F5F812934209D0B7
:1037880002F58012934205D002F58012934201D0CF
:10379800032B04D1B368022B06D8002445E0C521C9
:1037A8008A48FDF7ADFCF5E7C6218848FDF7A8FC77
:1037B800F3E7EA218548FDF7A3FC96E0072300E03C
:1037C80000238B4003430232824941F82230824B66
:1037D8001A68FB4303EA0201706810F4803F01D0C5
:1037E80047EA02017C4A1160526803EA02017068E4
:1037F80010F4003F01D047EA0201774A516092680D
:1038080003EA0201706810F4801F01D047EA020140
:10381800714A9160D2681340716811F4001F01D099
:1038280047EA02036C4AD36001340F2C00F2C980C6
:103838000125A54037682F40BD42F5D17368022B9A
:1038480001D0122B31D13369FBB1092B1DD0012BCB
:103858001BD0022B19D0032B17D0042B15D0052B06
:1038680013D0062B11D0072B0FD0082B0DD00A2B05
:103878000BD00B2B09D00C2B07D00D2B05D00F2B01
:1038880003D0D7215148FDF73BFCE208083258F82D
:10389800220004F0070399000F238B4020EA03005D
:1038A80033698B40034348F82230D8F800204FEAA8
:1038B800440A4FF0030909FA0AF96FEA090909EA03
:1038C8000202736803F0030303FA0AF31343C8F808
:1038D800003073685A1E012A03D9112B01D0122B0C
:1038E80018D1F368032B3FF664AFD8F8082009EA2B
:1038F8000202F36803FA0AF31343C8F80830D8F849
:10390800042022EA05027368C3F30015A540154395
:10391800C8F80450D8F80C3009EA0309B36803FA68
:103928000AF343EA0903C8F80C30736813F0805FA0
:103938003FF47AAF00230193284B5A6C42F480423B
:103948005A645B6C03F480430193019BA208911CA9
:10395800204B53F8210004F0030399000F238B40F8
:1039680020EA0300184B98453FF42AAF03F580631B
:1039780098451AD003F58063984518D003F58063FD
:10398800984516D003F58063984514D003F58063F5
:10399800984512D003F58063984510D003F58063ED
:1039A80098453FF40BAF08230BE7012309E70223EF
:1039B80007E7032305E7042303E7052301E70623B5
:1039C800FFE602B0BDE8F08700000240B43E000800
:1039D8000000111000380140003C0140003802404E
:1039E80070B5064615460C4629B1012D09D875B99A
:1039F8002404B46170BD40F2AF110648FDF780FBA6
:103A0800F3E74FF4D8710348FDF77AFBEFE7B461A9
:103A1800F0E700BFB43E000810B50446C31E042BEF
:103A28000FD80A4AD36823F4E0631B041B0C240252
:103A380004F4E064234343F0BF6343F40033D360EA
:103A480010BDA2210248FDF75BFBEAE700ED00E0AC
:103A5800EC3E000870B505460C4616460F2A25D8D8
:103A68000F2C28D81B4BDB68C3F30223C3F10702D2
:103A7800042A28BF0422191D062921D9033B4FF027
:103A8800FF3101FA02F224EA02049C4001FA03F32E
:103A980026EA03063443002D14DB2401E4B205F1C1
:103AA800604505F5614585F8004370BDBA210A48AF
:103AB800FDF726FBD4E7BB210748FDF721FBD1E73B
:103AC8000023DCE705F00F052401E4B2034B5C5545
:103AD800EBE700BF00ED00E0EC3E000814ED00E06D
:103AE8000138B0F1807F0AD2064B5860064AF021AF
:103AF80082F823100020986007221A60704701207E
:103B0800704700BF10E000E000ED00E010B504468B
:103B1800042800D038B9042C0BD0094A136823F0C4
:103B28000403136010BD40F2D9110648FDF7E8FA06
:103B3800F1E7034A136843F004031360F2E700BF98
:103B480010E000E0EC3E0008704708B5FFF7FCFF06
:103B580008BD000010B504460E4B18784FF47A7370
:103B6800B3FBF0F30C4A1068B0FBF3F0FFF7B8FFB3
:103B780068B90F2C01D901200AE0002221464FF034
:103B8800FF30FFF767FF054B1C60002000E00120B5
:103B980010BD00BF8008002088080020840800208D
:103BA80008B50B4B1A6842F400721A601A6842F49E
:103BB80080621A601A6842F480721A600320FFF764
:103BC8002BFF0020FFF7C6FFFDF75CFE002008BDB5
:103BD800003C0240034A1168034B1B780B441360F6
:103BE800704700BF341C002080080020014B186873
:103BF800704700BF341C002038B50446FFF7F6FFB5
:103C08000546B4F1FF3F02D0044B1B781C44FFF774
:103C1800EDFF401BA042FAD338BD00BF800800204A
:103C28000F49D1F8883043F47003C1F888300D4B40
:103C38001A6842F001021A60002098601A6822F09F
:103C4800847222F480321A60074A5A601A6822F491
:103C580080221A60D8604FF000638B60704700BF05
:103C680000ED00E00038024010300024DFF834D0C6
:103C7800002103E00C4B5B58435004310B480C4BBC
:103C880042189A42F6D30B4A02E0002342F8043B5A
:103C9800094B9A42F9D3FFF7C3FF00F011F8FDF77B
:103CA800F9F97047000002204C3F0008000000208E
:103CB8008C0800208C080020381C0020FEE700003B
:103CC80070B50D4E0D4CA41BA4100025A54209D1BA
:103CD8000B4E0C4C00F018F8A41BA4100025A542AC
:103CE80005D170BD56F8253098470135EEE756F8EE
:103CF800253098470135F2E7443F0008443F000863
:103D0800443F0008483F0008F8B500BFF8BC08BCAD
:103D18009E467047F8B500BFF8BC08BC9E46704781
:103D2800FFFFFFFF0100000001000000010000008C
:103D38000100000001000000FFFFFFFF010000007C
:103D4800FFFFFFFF0100000001000000FFFFFFFF71
:103D5800436F72652F5372632F6D61696E2E630016
:103D6800436F72652F5372632F6164632E63000083
:103D7800436F72652F5372632F74696D2E63000051
:103D8800436F72652F5372632F75736172742E635C
:103D980000000000447269766572732F53544D33E6
:103DA80032463478785F48414C5F44726976657270
:103DB8002F5372632F73746D3332663478785F686B
:103DC800616C5F6164632E63000000004472697671
:103DD8006572732F53544D3332463478785F4841B7
:103DE8004C5F4472697665722F5372632F73746DDA
:103DF8003332663478785F68616C5F74696D2E63FE
:103E080000000000447269766572732F53544D3375
:103E180032463478785F48414C5F447269766572FF
:103E28002F5372632F73746D3332663478785F68FA
:103E3800616C5F74696D5F65782E630044726976A2
:103E48006572732F53544D3332463478785F484146
:103E58004C5F4472697665722F5372632F73746D69
:103E68003332663478785F68616C5F756172742E7E
:103E780063000000447269766572732F53544D33A2
:103E880032463478785F48414C5F4472697665728F
:103E98002F5372632F73746D3332663478785F688A
:103EA800616C5F7263632E63000000004472697680
:103EB8006572732F53544D3332463478785F4841D6
:103EC8004C5F4472697665722F5372632F73746DF9
:103ED8003332663478785F68616C5F6770696F2E1B
:103EE80063000000447269766572732F53544D3332
:103EF80032463478785F48414C5F4472697665721F
:103F08002F5372632F73746D3332663478785F6819
:103F1800616C5F636F727465782E63000000000047
:103F28000000000001020304060708090000000061
:043F3800010203047B
:083F3C0098CAFF7F010000009C
:043F4400AD010008C3
:043F480089010008E3
:103F4C000000000000000000CDCCCC3D00000000C3
:103F5C00CDCCCC3D26935A3BCDCCCC3DBFF0DA3BFF
:103F6C00CDCCCC3D57AA243CCDCCCC3DE26B5C3CBB
:103F7C00CDCCCC3D57788A3CCDCCCC3DF037A73C52
:103F8C00CDCCCC3D9C92C43CCDCCCC3D37A9E23CB5
:103F9C00CDCCCC3D31D0003DCDCCCC3DC3D0103DB3
:103FAC00CDCCCC3D0C6E213DCDCCCC3D9CC3323D1B
:103FBC00CDCCCC3DE1F1443DCDCCCC3D931F583D17
:103FCC00CDCCCC3D907B6C3DCDCCCC3DBF1F813D51
:103FDC00CDCCCC3DB8D98C3DCDCCCC3D9A99993D2E
:103FEC00CDCCCC3D199BA73DCDCCCC3DBF2DB73D09
:103FFC00CDCCCC3D81BEC83DCDCCCC3DBCE7DC3D71
:10400C00CDCCCC3D428DF43DCDCCCC3D8988083E09
:10401C00CDCCCC3DB25F1A3ECDCCCC3D9BE3313EFA
:10402C00CDCCCC3DF66D533ECDCCCC3D3E1B853E30
:10403C00CDCCCC3DE9769D3ECDCCCC3DE9769D3EBC
:10404C00CDCCCC3DE9769D3ECDCCCC3DE9769D3EAC
:10405C00CDCCCC3DF34DC13ECDCCCC3DF34DC13E92
:10406C00CDCCCC3DF34DC13ECDCCCC3DF34DC13E82
:10407C00CDCCCC3DE9769D3ECDCCCC3DE9769D3E7C
:10408C00CDCCCC3DE9769D3ECDCCCC3DE9769D3E6C
:10409C00CDCCCC3D3E1B853ECDCCCC3DF66D533EC0
:1040AC00CDCCCC3D9BE3313ECDCCCC3DB25F1A3E6A
:1040BC00CDCCCC3D8988083ECDCCCC3D428DF43D59
:1040CC00CDCCCC3DBCE7DC3DCDCCCC3D81BEC83DA0
:1040DC00CDCCCC3DBF2DB73DCDCCCC3D199BA73D18
:1040EC00CDCCCC3D9A99993DCDCCCC3DB8D98C3D1D
:1040FC00CDCCCC3DBF1F813DCDCCCC3D907B6C3D20
:10410C00CDCCCC3D931F583DCDCCCC3DE1F1443DC5
:10411C00CDCCCC3D9CC3323DCDCCCC3D0C6E213DA9
:10412C00CDCCCC3DC3D0103DCDCCCC3D31D0003D21
:10413C00CDCCCC3D37A9E23CCDCCCC3D9C92C43C03
:10414C00CDCCCC3DF037A73CCDCCCC3D57788A3C80
:10415C00CDCCCC3DE26B5C3CCDCCCC3D57AA243CC9
:10416C00CDCCCC3DBFF0DA3BCDCCCC3D26935A3BED
:10417C00CDCCCC3D26935ABBCDCCCC3DBFF0DABBDD
:10418C00CDCCCC3D57AA24BCCDCCCC3DE26B5CBC99
:10419C00CDCCCC3D57788ABCCDCCCC3DF037A7BC30
:1041AC00CDCCCC3D9C92C4BCCDCCCC3D37A9E2BC93
:1041BC00CDCCCC3D31D000BDCDCCCC3DC3D010BD91
:1041CC00CDCCCC3D0C6E21BDCDCCCC3D9CC332BDF9
:1041DC00CDCCCC3DE1F144BDCDCCCC3D931F58BDF5
:1041EC00CDCCCC3D907B6CBDCDCCCC3DBF1F81BD2F
:1041FC00CDCCCC3DB8D98CBDCDCCCC3D9A9999BD0C
:10420C00CDCCCC3D199BA7BDCDCCCC3DBF2DB7BDE6
:10421C00CDCCCC3D81BEC8BDCDCCCC3DBCE7DCBD4E
:10422C00CDCCCC3D428DF4BDCDCCCC3D898808BEE7
:10423C00CDCCCC3DB25F1ABECDCCCC3D9BE331BED8
:10424C00CDCCCC3DF66D53BECDCCCC3D3E1B85BE0E
:10425C00CDCCCC3DE9769DBECDCCCC3DE9769DBE9A
:10426C00CDCCCC3DE9769DBECDCCCC3DE9769DBE8A
:10427C00CDCCCC3DF34DC1BECDCCCC3DF34DC1BE70
:10428C00CDCCCC3DE9769DBECDCCCC3DE9769DBE6A
:10429C00CDCCCC3DE9769DBECDCCCC3DE9769DBE5A
:1042AC00CDCCCC3D3E1B85BECDCCCC3DF66D53BEAE
:1042BC00CDCCCC3D9BE331BECDCCCC3DB25F1ABE58
:1042CC00CDCCCC3D898808BECDCCCC3D428DF4BD47
:1042DC00CDCCCC3DBCE7DCBDCDCCCC3D81BEC8BD8E
:1042EC00CDCCCC3DBF2DB7BDCDCCCC3D199BA7BD06
:1042FC00CDCCCC3D9A9999BDCDCCCC3DB8D98CBD0B
:10430C00CDCCCC3DBF1F81BDCDCCCC3D907B6CBD0D
:10431C00CDCCCC3D931F58BDCDCCCC3DE1F144BDB3
:10432C00CDCCCC3D9CC332BDCDCCCC3D0C6E21BD97
:10433C00CDCCCC3DC3D010BDCDCCCC3D31D000BD0F
:10434C00CDCCCC3D37A9E2BCCDCCCC3D9C92C4BCF1
:10435C00CDCCCC3DF037A7BCCDCCCC3D57788ABC6E
:10436C00CDCCCC3DE26B5CBCCDCCCC3D57AA24BCB7
:10437C009A99993DBFF0DABBCDCCCC3C26935ABB75
:10438C00CDCCCCBC26935A3B9A9999BDBFF0DA3B65
:10439C00CDCCCCBD57AA243CCDCCCCBDE26B5C3C87
:1043AC00CDCCCCBD57788A3CCDCCCCBDF037A73C1E
:1043BC00CDCCCCBD9C92C43CCDCCCCBD37A9E23C81
:1043CC00CDCCCCBD31D0003DCDCCCCBDC3D0103D7F
:1043DC00CDCCCCBD0C6E213DCDCCCCBD9CC3323DE7
:1043EC00CDCCCCBDE1F1443DCDCCCCBD931F583DE3
:1043FC00CDCCCCBD907B6C3DCDCCCCBDBF1F813D1D
:10440C00CDCCCCBDB8D98C3DCDCCCCBD9A99993DF9
:10441C00CDCCCCBD199BA73DCDCCCCBDBF2DB73DD4
:10442C00CDCCCCBD81BEC83DCDCCCCBDBCE7DC3D3C
:10443C00CDCCCCBD428DF43DCDCCCCBD8988083ED5
:10444C00CDCCCCBDB25F1A3ECDCCCCBD9BE3313EC6
:10445C00CDCCCCBDF66D533ECDCCCCBD3E1B853EFC
:10446C00CDCCCCBDE9769D3ECDCCCCBDE9769D3E88
:10447C00CDCCCCBDE9769D3ECDCCCCBDE9769D3E78
:10448C00CDCCCCBDF34DC13ECDCCCCBDF34DC13E5E
:10449C00CDCCCCBDF34DC13ECDCCCCBDF34DC13E4E
:1044AC00CDCCCCBDE9769D3ECDCCCCBDE9769D3E48
:1044BC00CDCCCCBDE9769D3ECDCCCCBDE9769D3E38
:1044CC00CDCCCCBD3E1B853ECDCCCCBDF66D533E8C
:1044DC00CDCCCCBD9BE3313ECDCCCCBDB25F1A3E36
:1044EC00CDCCCCBD8988083ECDCCCCBD428DF43D25
:1044FC00CDCCCCBDBCE7DC3DCDCCCCBD81BEC83D6C
:10450C00CDCCCCBDBF2DB73DCDCCCCBD199BA73DE3
:10451C00CDCCCCBD9A99993DCDCCCCBDB8D98C3DE8
:10452C00CDCCCCBDBF1F813DCDCCCCBD907B6C3DEB
:10453C00CDCCCCBD931F583DCDCCCCBDE1F1443D91
:10454C00CDCCCCBD9CC3323DCDCCCCBD0C6E213D75
:10455C00CDCCCCBDC3D0103DCDCCCCBD31D0003DED
:10456C00CDCCCCBD37A9E23CCDCCCCBD9C92C43CCF
:10457C00CDCCCCBDF037A73CCDCCCCBD57788A3C4C
:10458C00CDCCCCBDE26B5C3CCDCCCCBD57AA243C95
:10459C00CDCCCCBDBFF0DA3BCDCCCCBD26935A3BB9
:1045AC00CDCCCCBD26935ABBCDCCCCBDBFF0DABBA9
:1045BC00CDCCCCBD57AA24BCCDCCCCBDE26B5CBC65
:1045CC00CDCCCCBD57788ABCCDCCCCBDF037A7BCFC
:1045DC00CDCCCCBD9C92C4BCCDCCCCBD37A9E2BC5F
:1045EC00CDCCCCBD31D000BDCDCCCCBDC3D010BD5D
:1045FC00CDCCCCBD0C6E21BDCDCCCCBD9CC332BDC5
:10460C00CDCCCCBDE1F144BDCDCCCCBD931F58BDC0
:10461C00CDCCCCBD907B6CBDCDCCCCBDBF1F81BDFA
:10462C00CDCCCCBDB8D98CBDCDCCCCBD9A9999BDD7
:10463C00CDCCCCBD199BA7BDCDCCCCBDBF2DB7BDB2
:10464C00CDCCCCBD81BEC8BDCDCCCCBDBCE7DCBD1A
:10465C00CDCCCCBD428DF4BDCDCCCCBD898808BEB3
:10466C00CDCCCCBDB25F1ABECDCCCCBD9BE331BEA4
:10467C00CDCCCCBDF66D53BECDCCCCBD3E1B85BEDA
:10468C00CDCCCCBDE9769DBECDCCCCBDE9769DBE66
:10469C00CDCCCCBDE9769DBECDCCCCBDE9769DBE56
:1046AC00CDCCCCBDF34DC1BECDCCCCBDF34DC1BE3C
:1046BC00CDCCCCBDE9769DBECDCCCCBDE9769DBE36
:1046CC00CDCCCCBDE9769DBECDCCCCBDE9769DBE26
:1046DC00CDCCCCBD3E1B85BECDCCCCBDF66D53BE7A
:1046EC00CDCCCCBD9BE331BECDCCCCBDB25F1ABE24
:1046FC00CDCCCCBD898808BECDCCCCBD428DF4BD13
:10470C00CDCCCCBDBCE7DCBDCDCCCCBD81BEC8BD59
:10471C00CDCCCCBDBF2DB7BDCDCCCCBD199BA7BDD1
:10472C00CDCCCCBD9A9999BDCDCCCCBDB8D98CBDD6
:10473C00CDCCCCBDBF1F81BDCDCCCCBD907B6CBDD9
:10474C00CDCCCCBD931F58BDCDCCCCBDE1F144BD7F
:10475C00CDCCCCBD9CC332BDCDCCCCBD0C6E21BD63
:10476C00CDCCCCBDC3D010BDCDCCCCBD31D000BDDB
:10477C00CDCCCCBD37A9E2BCCDCCCCBD9C92C4BCBD
:10478C00CDCCCCBDF037A7BCCDCCCCBD57788ABC3A
:10479C00CDCCCCBDE26B5CBCCDCCCCBD57AA24BC83
:1047AC00CDCCCCBDBFF0DABB0000000026935ABBC9
:1047BC0000000000000000000000000000000000ED
:0C47CC0001000000100000000024F400B8
:0400000508003C753E
:00000001FF
